:020000040800F2
:100000003009002061470008DD460008DF4600088F
:10001000E1460008E3460008E5460008000000004D
:10002000000000000000000000000000E74600089B
:10003000E946000800000000EB460008ED46000815
:1000400085470008894700088D4700089147000848
:1000500095470008994700089D470008A1470008F8
:10006000A5470008A9470008AD470008B1470008A8
:10007000B5470008B9470008BD470008C147000858
:10008000C5470008C9470008CD470008D147000808
:10009000D5470008D9470008DD470008E1470008B8
:1000A00000000000E5470008E9470008ED470008A8
:1000B000F1470008F5470008F9470008FD47000828
:1000C0000148000805480008094800080D480008D4
:1000D0001148000815480008F146000819480008B2
:1000E0001D48000821480008254800082948000844
:1000F0002D4800082DE9F14FB2B0994692460023F1
:100100000691CDE900333C9A0F930DF14A01149109
:100110004A7011E0329E57462C4617F8011B06988C
:10012000B0470028069000F026810F98401C641EFE
:100130000F90F2D13296AA449AF80000252808D1EF
:100140000021002209910A920B910C920D910E92BE
:100150000FE06A464FF0FF31504601F07FF805008E
:1001600002D10F9800F066BED4D50125E3E741F037
:1001700001011AF8010F2028F9D023280CD02B28D0
:1001800004D02D2805D0302809D00BE041F0020121
:10019000EFE741F00401ECE741F00801E9E741F045
:1001A0001001E6E72A280FD1D9F8002052F8040BF5
:1001B000C9F800200028119003D54042119041F069
:1001C00004010AF1010A14E01192DFF8EC3B0AE0A5
:1001D0001198984205DA00EB800402EB4402303AB1
:1001E00011920AF1010A9AF80020A2F130000A28BF
:1001F000EED39AF800002E2803D04FF0FF32109271
:1002000029E01AF8010F2A2809D1D9F8000050F87E
:10021000042BC9F8000010920AF1010A1BE02D28F6
:100220000CBF0AF1010A002000221092DFF8882B8F
:100230000BE040B9109B934205DA03EB830504EB16
:100240004504303C10940AF1010A9AF80040A4F1E8
:1002500030030A2BEDD3ADF848100FF660309AF852
:10026000001001F005F808B11AF8010B8DF84A00EA
:100270009DF84A00682805D19AF8000068280CD13A
:10028000622106E06C2804BF9AF800006C2804D1B3
:1002900071218DF84A100AF1010A1FA808901AF876
:1002A00001BBBBF125012DD01C3900F06181091F74
:1002B000022940F25D810E392AD0491F00F0B38433
:1002C000093900F05581891E00F04985491E00F06A
:1002D000F584491E022940F24B81091F00F0EE848B
:1002E000491F00F0BA80491E00F09D84491E65D068
:1002F000C91E21D0891E00F09684C91E00F0938487
:1003000000F04CBD25238DF87C30012109912AE0B5
:100310006C208DF84A00D9F8000050F8042BC9F879
:100320000000002A43D11499487800283DD04FF0AE
:10033000FF340FF6902012E09DF84A006C28EAD0B6
:10034000D9F8000050F8044BC9F800000794D4B95C
:100350001499487898B14FF0FF340FF6842000F0DC
:10036000A1FF201A07D132981FAA04A900F065FD49
:1003700000287FF5E1AE4FF0FF3000F05BBD0FF6D7
:100380007C200790EFE7109D002D04D5204600F05B
:10039000A9FF044607E02A46204600F0BFFF0028D8
:1003A00014BF041B2C460A94DDE70FF65422329842
:1003B00004A900F0C8FD0028D5D5DCE7D9F8001065
:1003C00051F8040BC9F8001020F00004002121F0BE
:1003D000FF351FABCDE904450793DDE904230899F8
:1003E0003C2413B90AB9109898B102F00F053035C2
:1003F000641EEEB23A2EA8BF2735120942EA0372F4
:100400001B090D5508BF002A03D007980D19A842F3
:10041000EBD308190790C4F13C0210980A9282426B
:1004200009DABDF84810821A4FF6EF7001400C92BD
:10043000ADF8481097E7002895D59DF8480000F0E2
:10044000140010288FD1119B09990C985B1A1B1A64
:100450009A1A002A87DD0C9285E71499487820B112
:100460004FF0FF340FF69C1079E79DF84A006228A0
:1004700062D0682819D06A2840D06C2806D071282C
:100480004DD074282DD07A281ED064E0D9F8001001
:1004900051F8040BC9F8001020B94FF0FF340FF6E3
:1004A0007C105CE70F9901605DE7D9F8001051F806
:1004B000040BC9F8001020B94FF0FF340FF65C10A0
:1004C0004DE70F9901804EE7D9F8001051F8040B61
:1004D000C9F800100028E5D14FF0FF340FF63C10AA
:1004E0003DE7D9F8001051F8040BC9F800100028B6
:1004F000D8D14FF0FF340FF6241030E7D9F80010B0
:1005000051F8040BC9F8001020B94FF0FF340FF672
:100510000C1024E70F9AD317C0E9002323E7D9F87A
:10052000001051F8040BC9F800100028F2D14FF068
:10053000FF340FF6E80012E7D9F8001051F8040B69
:10054000C9F8001020B94FF0FF340FF6D00006E7CD
:100550000F99017007E7D9F8001051F8040BC9F89A
:10056000001000289ED14FF0FF340FF6B000F6E6E1
:10057000D9F80020D21D22F00702C9F80020D2E9E4
:1005800000010832C9F80020CDE90401C80F02D0EB
:1005900009982D210AE0BDF84800810702D5099885
:1005A0002B2103E0C00705D5099820211FAA11546B
:1005B000401C0990DDE9042309991FA8CDE92E23E9
:1005C00008444BF020016129079015AC0BD010991D
:1005D000002902D50621109105E001BF4BF0200152
:1005E000672901221092DDE9042359004915491CAD
:1005F00010D11A030ED0ABF1610503211A2D0A9117
:1006000002D20FF6A43101E00FF6A031032200F070
:10061000B1FEA8E659004915491C0AD11A0308D1B0
:10062000ABF1610503211A2D0A9116D30FF684311F
:10063000ECE7DDE90401CDE93001DDE9302323F009
:100640000047B7F5801F22F000060DD20022002FD0
:1006500008BF002E029203D116E00FF65431D5E701
:1006600002AA00F093FE0FE0DFF8EC0ADFF8EC1AC4
:1006700000EB17500290DDE930234FF0FF301940B6
:10068000DFF8DC7A10403943CDE904014BF020005B
:1006900061280DD1079830210170821CBBF1610FD8
:1006A00007920CBF7821582141700998801C09904D
:1006B000DDE9040120F0000231F0004308BF002A08
:1006C00002D10026002571E14BF02008B8F1610F3E
:1006D00040F0BE801098002847BF21210391401CA4
:1006E0000390039FDDE92E017F1C00220023DDE93A
:1006F000044500F083FE02998DF8542038BF85F040
:100700000045091F002F02910DF155065DDDDFF850
:10071000541ACDE9302140F2FF732E93204629462A
:100720000022002300F082FE4FD24800400D00F16D
:100730001C0215D0002A13DD2E9B9A420ADBDDE94C
:10074000300121F0004205F000400243DDE93001B4
:10075000114611E06FF31E5141EA025120460BE0B1
:1007600024F0000035F0004108BF00280FBF2946E3
:100770001C22294600F072FE04460D4600F00CFFD4
:10078000FF1F002F804609DD00F024FF02460B46C4
:100790002046294600F030FF04460D46F01D072193
:1007A000B8F1000F0CDD491E5EBF08F00F0200F823
:1007B000012D4FEA2818F3D502E0002200F8012DA0
:1007C000491EFAD5C61D002FA8DC0DF15500361ABA
:1007D00003988642D8BF304600280DF1550430D426
:1007E000B04206DA0DF155010A5C082AA8BF0F21B4
:1007F00000DA0021024615AB134400E0401E13F856
:100800000159521E8D42F9D00F2904D10DF1550125
:100810008B5C5B1C8B54002A04D50299091D15AC16
:10082000401C0291411E0CD46218ABF13A061378B9
:100830003033DDB23A2DA8BFF318491E02F8013952
:10084000F5D51099002940F1AF80421E1092ABE01F
:100850000299DFF8142947F29750414391FBF2F2D5
:10086000DDE92E45029225F00045D2F1070204DDB4
:100870002046294600F04CFC0BE052420020DFF8F5
:10088000EC1800F045FC02460B462046294600F0D5
:1008900025FF0446B8F1660F109806BF029F0A377D
:1008A00006273F18142FC8BF142730208DF8540096
:1008B0000D460020DFF8B818CDE92E010DF15506E0
:1008C000002F33DD2046294601F02CF801460A4668
:1008D00006F1080304200A26B2FBF6F606EB860EA4
:1008E000A2EB4E02303203F8012C0A22B6FBF2F2E0
:1008F00002EB820EA6EB4E063036401E03F8026D68
:10090000E9D1083F002F03F10806D9DD084601F0C0
:100910001DF802460B462046294600F06DFEDDE933
:100920002E2301F021F804460D46CBE70DF15500CA
:10093000361A0DF1550404E00298401E761E02900E
:10094000641C20783028F7D0B8F1660F02D10299E4
:10095000491C04E0B8F1650F0CBF0121002110987B
:1009600008188642B8BF701E00281DD4B04204DAB1
:10097000215C3429C8BF392100DC30210246631EC6
:100980009D1800E0401E15F80169521E8E42F9D0F4
:10099000392902D1A15C491CA154002A04D502992D
:1009A000491C1C46401C02910646029D00F05AFC60
:1009B000406A0778DDF8408030B2002802DC01266A
:1009C0000FF2F4744BF02000662808BF6D1C16D09F
:1009D000672846D128B210F1040F48DB404546DABB
:1009E0009DF848006D1C010703D430B24045B8BFE4
:1009F000804628B2B8EB000848BF4FF000080FFA55
:100A000085FB07980A99BBF1000F00F3B2804A1CDE
:100A10000A9230234354B8F1000F03DC9DF84800DC
:100A2000010704D50A98411C0A9107990F5418EB45
:100A30000B0FB8BFC8F100052DB268420D90A84455
:100A400032B29045B8BF4646079B0A9836B20B961D
:100A500032462146184400F08DFCA8EB06000E90AB
:100A6000CBE0BBF1610F17D14FF0700B19E030B242
:100A7000404504DA9DF848100A0758BF8046B8F18F
:100A8000010848BF4FF00008BBF1670F14BF4FF0DB
:100A9000450B4FF0650B04E0BBF1410F08BF4FF071
:100AA000500B0A98411C0A91B8F1000F079914F8ED
:100AB000012B0A5403DC9DF8480001071AD50A9857
:100AC000411C0A91B8F1000F07990F5412DD761EF0
:100AD00030B2804507980A9BB8BF464632B22146DD
:100AE000184400F047FC0A9936B271180A91A8EB35
:100AF00006000D9007980A9908442AB2002A80F847
:100B000000B003D42B224270811C04E02D214170DF
:100B10001546811C6D4200202EAA0A2409E02B46AE
:100B200093FBF4F505EB8506A3EB460302F8013BC6
:100B3000401C2DB2002DF2DC012806DC4BF0200217
:100B4000652A04BF302201F8012B00282EAA08D103
:100B5000302001F8010B06E0401E135C303301F831
:100B6000013B0028F8DC079A0A981044091A0B91F7
:100B700043E0084431B22AB2914219DA32B2214636
:100B800000F0F8FB0A9936B27118ABEB0606B8F123
:100B9000000F0A910D9603DC9DF84800020704D56A
:100BA000079847540B99491C0B91CDF8388024E0E5
:100BB000214600F0DFFB0A98761B5844B8F1000F7D
:100BC0000A9003DC9DF848100A0703D5411C0A91DE
:100BD00007990F5430B2804507980A9BB8BF464624
:100BE00032B204EB0B01184400F0C4FB0A9836B291
:100BF00030180A90A8EB06000D909DF8480000F010
:100C0000140010287FF4AFAB099A0A990D988A183E
:100C10000B9982180E988A18821811988242BFF692
:100C2000A2AB821A17E49DF84A00622808D068280F
:100C30000ED06A2814D06C281FD0712810D01CE068
:100C4000D9F8001051F8040BC9F80010C0B21AE02E
:100C5000D9F8001051F8040BC9F8001080B212E066
:100C6000D9F80020D21D22F00702C9F80020D2E9ED
:100C700000010832C9F8002006E0D9F8001051F848
:100C8000040BC9F800100021CDE904019DF84800CB
:100C900001075AD5DDE90423002B08BF002A54D0F0
:100CA0004BF02000782850D109981FA930220A540F
:100CB000401C431C099301F800B046E09DF84A002F
:100CC000622808D068280ED06A2814D06C281FD05B
:100CD000712810D01CE0D9F8001051F8040BC9F8A5
:100CE000001040B21AE0D9F8001051F8040BC9F80E
:100CF000001000B212E0D9F80020D21D22F0070245
:100D0000C9F80020D2E900010832C9F8002006E045
:100D1000D9F8001051F8040BC9F80010C117CDE93B
:100D20000401002902D509982D210AE0BDF84800E8
:100D3000810702D509982B2103E0C00705D5099842
:100D400020211FAA1154401C09901FA80999014491
:100D5000079104A8594600F056F9FFF704BB9DF827
:100D60004A006C280BD001210991D9F8000050F8F5
:100D7000041BC9F800008DF87C10FFF7F4BAD9F80D
:100D8000000050F8041BC9F8000015914FF0FF3225
:100D900010920021169115AAFFF709BB2521012207
:100DA000BBF1000F8DF87C1009923FF4DCAA8DF89E
:100DB0007DB00221FFF7AABACBCCCC0C686A6C7468
:100DC0007A4C00007072696E74665F733A206261DB
:100DD0006420256C7320617267756D656E74000008
:100DE0007072696E74665F733A2062616420257365
:100DF00020617267756D656E740000000000000070
:100E0000000000007072696E74665F733A20256E90
:100E100020646973616C6C6F776564007072696ED1
:100E200074663A2062616420256E20617267756D78
:100E3000656E740033B0BDE8F08F2DE9FC410F46BC
:100E4000064690467A6B7869396ABC6A121AB869A4
:100E5000521A796A121AF869521A121A97F8380057
:100E6000141B41070FD42020002C8DF800000ADD50
:100E7000254601236A463946304600F07DF90028B0
:100E80005DD16D1EF5D17B6942463946304600F092
:100E900073F9002853D130208DF800003D6A002DF1
:100EA00009DD01236A463946304600F065F900281D
:100EB00045D16D1EF5D1BB69FA683946304600F060
:100EC0005BF900283BD130208DF800007D6A002DB1
:100ED00008DD01236A463946304600F04DF970BB03
:100EE0006D1EF6D1F868B969FB694218394630467B
:100EF00000F042F918BB30208DF80000BD6A002DCB
:100F000008DD01236A463946304600F035F9B0B9AC
:100F10006D1EF6D197F8380041070DD52020002C22
:100F20008DF8000008DD01236A463946304600F09E
:100F300023F920B9641EF6D10020BDE8F6814FF0F8
:100F4000FF30BDE8F6812DE9F8470D46A3B02F6BC1
:100F5000002F8246904648BF6FF0004700F0D5FD55
:100F6000696B401801AA0021C2E90011812828BF3D
:100F70004FF0FF3044D289461EE0A74230DB68695B
:100F8000201881280BD30021696303AA2946504603
:100F9000FFF753FF5FEA000922D40020686103AB2A
:100FA0006E6922466946981900F0E4F9A6196E6147
:100FB00058F8040BA0B13F1B002F11DDD8F800102A
:100FC00001AA684600F04CF90446002C05D4D8F874
:100FD00000000028D1D1641ECFD54FF0FF390EE0BC
:100FE000B9F1000F504604D103AA2946FFF725FFA7
:100FF0008146B9F1000F02D100206861686348465C
:1010000024B0BDE8F0872DE9FC4307466F293E690F
:1010100008BF082405D041F02000782814BF0A2416
:1010200010243C25D7E90023642918BF692990467C
:10103000994605D1002B03D5D8F1000869EB490981
:10104000B9F1000F08BFB8F1000F0CD1386B50B9DF
:10105000082C39D197F83800010735D530203B25C9
:1010600086F83B0030E08DF80010404649462246A5
:10107000E31700F04FFD3032D0B26D1E3A280195D3
:1010800004DB9DF80000A0F151018A18725540461A
:1010900049462246E31700F03DFD80465FEA01091C
:1010A00008BFB8F1000F03D0F86871198842DCD38B
:1010B000082C09D197F83800010705D5705D302854
:1010C00002D06D1E30207055C5F13C02BA61711915
:1010D000F960386B824208DA821A3A624FF6EF7092
:1010E000398F01403987BDE8F38300280ED597F882
:1010F000380000F01400102808D17B6B7969386A39
:101100005B1A1B1A9A1A002AC8BF3A62BDE8F38319
:101110002DE9D04306460F4614464FF00008DFF88D
:10112000549012E0E00707D542464B463046394618
:1011300000F01AFC06460F464046494642464B46DA
:1011400000F012FC641080468946002CEAD130463B
:101150003946BDE8D083000002FCFFFFFFFF0F808F
:101160000000E03F0000F07FA08601000000F03F9B
:1011700084D7974100002440F8B505460E4617462F
:101180001C4600205CB117F8011BB068A847B0608E
:1011900030B1F06A401CF0620020641EF3D1F2BD51
:1011A0004FF0FF30F2BD00006E616E004E414E0008
:1011B000696E6600494E4600300030B4002513E0E9
:1011C00050F8042BD30744BFA9F101039A18091F53
:1011D000042942F8045BFAD213468C0744BF1580F9
:1011E0009B1CC90748BF1D7050F8041B0029E7D19C
:1011F00030BC70471C48704770B45368D41801E085
:101200005B1C491E042B08DA00291FBF057804F86F
:10121000015B10F8016B002EF2D1536070BC704777
:1012200038B514461D4661B1FFF7E6FF61686A6B89
:10123000204690476FF00102811A02D0491E01D06A
:1012400001E003E005E00021616032BD6FF00100C4
:1012500032BD4FF0FF3032BDDA6B1047024BDFE793
:10126000014BF9E701487047E8020020B002002076
:10127000C9B202788A421AB11CBF10F8012FF9E7EF
:1012800018BF00207047B1F5807F02D34FF0FF30C8
:1012900070470170012070470078401E8041C043B4
:1012A000C00F704780B500B906A005490B681BB197
:1012B00022220021984701E000F044FD222002BDD7
:1012C0002C050020636F6E73747261696E74206800
:1012D000616E646C65723A20626164206D6573733F
:1012E0006167650000F10103810704D010F8011B5C
:1012F000820781B1FAD10268A2F10131914311F064
:10130000803104BF50F8042FF6E709BAB1FA81F131
:1013100000EBD100401CC01A70472E00C9B28307F1
:1013200006D0521E22D310F8013B9942F7D11FE09C
:10133000083A13D302F1040241EA012141EA0141D2
:1013400050F8043B121F21BF4B40A3F1013C2CEA93
:10135000030C1CF0803FF3D0C9B2001F083210F814
:10136000013B521E28BF91EA030FF8D818BF012095
:10137000401E70474AB1000011F8013B521E00F8B0
:10138000013B1CBF11F8013BF8E7704710B514464C
:1013900000F002F8226010BDC1F30A5343B14A00C5
:1013A00012F5001F28D2A3F2FE32A1EB02517047C2
:1013B00050EA410C20D001F0004C31EA0C01B1FAA6
:1013C00081F204BFB0FA80F3D2180B3AB2F12003D5
:1013D0002CBF00FA03F1914041EA0C013EBFC2F17B
:1013E000200C20FA0CF319439040524240F2FD3396
:1013F000D21A01EB03517047002270474FF4001CD2
:101400001CEB410F94BF1CEB430F09E041EA030CB6
:1014100050EA4C0C52EA0C0C03D2994208BF90429D
:10142000704714BF8B428242704743004FF4001C48
:101430001CEB410F94BF1CEB430F09E041EA030C86
:1014400050EA4C0C52EA0C0C03D28B4208BF824289
:10145000704714BF9942904270470000124254D422
:1014600040F2FF7C1CEA11530FD0634531D09B182A
:1014700063453CBF01EB0251704701F0004141EA76
:101480000C510020AFF30080704750EA410320D098
:1014900001F0004C91EA0C011CD0B1FA81F30B3B36
:1014A0009A420DD9D21A994051EA0C01C3F1200C8D
:1014B00020FA0CFC61449840531C40F2FF7CD7E7B3
:1014C000914041EA0C01C2F1200C20FA0CF31943BF
:1014D00090407047B0FA80F31533202BE0D3202AD8
:1014E000EED3203A203B9A4209D9D21A00FA03F1EE
:1014F00041EA0C010020531C40F2FF7CB8E700FADF
:1015000002F141EA0C0100207047524240F2FF7C98
:101510001CEA11530DD06345DBD0B2EB030C3CBF8A
:10152000A1EB025170470CF1010221EA035141F491
:10153000801150EA410CCCD001F0004C352A27DC58
:1015400030B481EA0C01B2F1200309DAC2F12003C0
:10155000044601FA03F5D0402843D1409C400CE0FA
:10156000C3F12002450020FA03F418BF44F001043F
:1015700021FA03F091400C43002174F1004550F131
:10158000000051EB0C01244230BC7FF47BAF70476C
:101590006146002076E70000C1F30A5340F2FE32B4
:1015A0009B1A14DDD3F120034FEAE17208DDC90272
:1015B00041EA505141F00040D840801850407047F7
:1015C00003F2E13010B1D24382F0004070470020B6
:1015D00070470000C11768B14840401AB0FA80F265
:1015E0009040D21CC907C2F5846241EA025202EB64
:1015F000D02140057047000070B44FF0004591EADB
:10160000030F40F1AB836B40841A71EB030603D2E6
:10161000001BB141121973414FF4001C1CEB410F28
:1016200034BF7CEB430442E00C0DA4EB1356352E83
:101630004FDC45EAC323DB0A45EAC121C912B6F1F2
:1016400020050DDD63FA05F6EB4086EA030512423C
:1016500018BF45F00105C01851F100010CD213E08C
:1016600062FA06F5F2405540F3415A40B340F34068
:101670005A408018594107D349085FEA30005FEAB1
:10168000350528BF45F0010501F58011420875F1C7
:10169000004250F1000041EB04514E0016F5001FCE
:1016A00070BC38BF70470020090D090570471CEB5E
:1016B000410F10D252EA43060BD0BCEB410F05D8C4
:1016C0000C0DAB43661E342EB6DD02E0AB43801832
:1016D000594170BC704770BC70470000F0B540F2D3
:1016E000FF7581EA030C0CF0004C15EA11541DBF84
:1016F00015EA1357AC42AF42E5E0BC41C1F3130118
:10170000C3F31303801A994143F4801304D2641E77
:101710004000494180185941C90241EA5051B1FB8A
:10172000F3F603FB1611A2FB0675D7EBC020A94107
:1017300002D2761E80185941C90241EA5051B1FBCC
:10174000F3FE03FB1E11A2FB0E75D7EBC020A941CF
:1017500003D2AEF1010E80185941890241EA90513D
:10176000760546EA8E2EB1FBF3F603FB1611A2FBBB
:101770000675D7EB8020A94102D2761E8018594108
:10178000C90241EA50514EEA060EB1FBF3F603FBE3
:101790001611A2FB0675D7EBC020A94102D2761E16
:1017A00080185941C90241EA5051B1FBF3F703FBDC
:1017B0001711A2FB0735D3EBC020A94167F1000741
:1017C0000CBF004247F0010766F3D5274FEA1E31F0
:1017D000B80814F5806412DDBD0775F1004250EBC6
:1017E0000E5051EB045111F5801F5CBF41EA0C0112
:1017F000F0BD4CF07F6141F0E0410020F0BDBD073D
:101800006D0840EA0E5041F48011D4F10104B4F1A6
:1018100020060ADAC4F120060200E04001FA06F3CD
:10182000E1401843B24015430EE0342C13DCC6F1FE
:10183000200445EA40056D0820FA06F2154321FA16
:1018400006F0A1400D43002175F1004250F1000067
:1018500051EB0C01F0BD00205FEA0C01F0BDCFB9E7
:1018600092185B41B3FA83F704BFB2FA82F6BF194C
:101870000B3FB7F120062FBF02FA06F3BB40C7F1BA
:10188000200622FA06F638BF3343BA401CB1E419E9
:10189000641E33E77F4231F00041B1FA81F404BFA6
:1018A000B0FA80F6A4190B3CB4F120062FBF00FA61
:1018B00006F1A140C4F1200620FA06F638BF3143F4
:1018C000A0403C1B1AE7AC421ABF05EA1357AF42CF
:1018D00012E050EA41061CBF52EA4306BFE750EA55
:1018E0004107304661461CBF41EA0551F0BD52EA4E
:1018F000430C08BFC143F0BD00204FF4001616EBA7
:10190000410F98BF16EB430F08BF16EB410F24BFE2
:10191000C14305E016EB430F0CBF61464CEA05518D
:10192000F0BD0000400D491840EA81200CD2490D5D
:10193000A1F58061491C40F0004005DBD1F11F0199
:1019400054BFC840C017704700207047014648B1D7
:10195000B0FA80F18840C91CC1F58461090501EB2A
:10196000D021400570470000B0B581EA030C0CF0AF
:10197000004C40F2FF7515EA11541DBF15EA1357CC
:10198000AC42AF4239E0E41923EA455343F48013F3
:10199000C90241F0004141EA505EC7021100A7FBB5
:1019A000020200284FF00000EEFB01204FF0000182
:1019B000E3FB072118BF42F0010240180021494112
:1019C000E3FB0E01A4F580640F0302D252004041F4
:1019D000494154F101046CDD470872F1004250F1B5
:1019E000000051EB0451A1F580115CBF41EA0C01EC
:1019F000B0BD4CEA05510020B0BD05EA1357AC421A
:101A000014BFAF4241E050EA410E1CBF52EA430E00
:101A100002E061460020B0BD24423C441BD15FEA95
:101A2000070EF6D0090302BF01460020AEF1140EE6
:101A3000B1FA81F7AEEB070401FA07FE0C37C7F1E4
:101A4000200100FA07F7C8404EEA000E23EA45538A
:101A500043F48013A2E733F00043B3FA83F704BFE3
:101A6000B2FA82FE77440B3FE41BB7F1200E2FBF82
:101A700002FA0EF3BB40C7F1200E22FA0EFE38BF69
:101A800043EA0E03BA40641C82E750EA410E14BFD9
:101A900052EA430E6FF000014FF4001717EB430FAB
:101AA0008ABF194617EB410FB5E74CEA05510020F4
:101AB000B0BDD4F10104B4F120070FDAC4F120075E
:101AC000520828BF42F0010210FA07F501FA07F7A1
:101AD000E1BF2A43E0403843E1400FE0352C98DC79
:101AE000C7F1200452EA400220FA07F218BF42F080
:101AF000010231FA07F0A1400A43002172F10042CD
:101B000050F1000051EB0C01B0BD80B5FFF772FB46
:101B1000006C02BDBBBBE1B1B2F5803F80F07E80BE
:101B2000022A1ED98C46B1FBF2F102FB11C31B0441
:101B300043EA1043B3FBF2FC02FB1C3380B240EAE1
:101B40000343B3FBF2F002FB103240EA0C400023E7
:101B50007047022A05D98446B0FBF2F002FB10C29E
:101B600070474AB105D100F0010249085FEA300030
:101B7000704700220023704700F0A6B90B00020056
:101B8000002100207047904271EB030CF6D3B3F5AF
:101B9000803F2FD2F0B5B3FA83F7B1FA81F4A7F101
:101BA0000F0E3D1B5340CEF1200602FA0EF2F34118
:101BB0005340B5F10F0746D80F3C2C444140C4F1C7
:101BC0002006A040F1414140B1FBF3F603FB1611A2
:101BD000A2FB0645001BA94102D2761E801859417E
:101BE00080EA010221FA0EF362FA0EF200215A4055
:101BF0003046F0BD30B4B1FBF3FC03FB1C11A2FB7B
:101C00000C45001BA94103D2ACF1010C80185941CD
:101C100030BC02460B46604600217047B2F1807F1F
:101C200065D3F0B5B2FA82F7B1FA81F4C7F10F06C5
:101C30003D1B22FA06F307F1110EF24120355A40FE
:101C4000B5F10F07B8D94140C4F12006A040F141D9
:101C50004140B1FBF3FC03FB1C11A2FB0C45001B34
:101C6000A94103D2BCF1010C801859410F2F12D3A6
:101C70000F3FC90341EA5041B1FBF3F603FB1611D4
:101C8000A2FB0645D4EBC030A94102D2761E8018D3
:101C9000594146EACC3C07B34140C7F12006B84061
:101CA000F1414140B1FBF3F603FB1611A2FB0645DF
:101CB000001BA94102D2761E8018594180EA010218
:101CC00021FA0EF3C7F1200462FA0EF20CFA07F0C3
:101CD0005A402CFA04F13043F0BD80EA010221FAA7
:101CE0000EF3002162FA0EF260465A40F0BD8C46B7
:101CF000B1FBF2F102FB11C31B0243EA1063B3FB19
:101D0000F2FC02FB1C331B024CEA002043EA106386
:101D1000B3FBF2FC02FB1C331B024CEA002043EA3B
:101D20001063B3FBF2FC02FB1C331B024CEA0020E5
:101D300043EA1063B3FBF2FC02FB1C324CEA0020C6
:101D400000237047012000F0C1B8000070B44FF0CC
:101D5000004591EA030F7FF557AC6B40841A71EB95
:101D6000030604D26E40001BB141121973414FF4B7
:101D7000001C1CEB410F34BF7CEB430683E00C0DD1
:101D8000A4EB1356362E00F37C80012E45EAC323C4
:101D900041DC43EA525312BFD20292025B0824058F
:101DA00045EAC12141EA5051D2EBC020994125D4E6
:101DB00007D1B0FA80F610FA06F162D00020203682
:101DC00008E0B1FA81F6B140C6F1200220FA02F231
:101DD0001143B0404FEAF474B4EB465434F00106BA
:101DE0004FEA74040AD8D6F50016760D04F00044C4
:101DF000F04061FA06F25040F1404840C00A40EA23
:101E0000415021F0004128BF5FEA500550F1000029
:101E100044EBD12135E0DB0A45EAC121C90AB6F11C
:101E200020050EDD42EA0242120CC5F1200603FA3B
:101E300006F6EB4042EA06056D42984161F1000169
:101E40000DE062FA06F5F240554063FA06FC82EABC
:101E50000C02F3405A406D42904161EB030111F4D2
:101E6000801F05D1641E620502D06D0040414941CA
:101E700021F48011430875F1004350F1000041EB5B
:101E8000045170BC70471CEB410F15D223F0004386
:101E900052EA43060BD04FEA4C0CBCEB410F04D87E
:101EA0000C0D661E342EB7DDEBE7801A994150EA1F
:101EB000410608BF0021E4E708BF1CEB430F28BF21
:101EC0006FF00001DDE700007047000080B5AFF360
:101ED0000080024A11001820ABBEFBE7260002007A
:101EE0002DE9FC47040040D0DFF8F865B068B5681C
:101EF00000F00C082078C10705F480350ED5B8F144
:101F0000080F05D0B8F10C0F08BFB5F5803F47D1D9
:101F10003068810302D56068002826D02078DFF879
:101F2000D475810714D5B8F1040F04D0B8F10C0FA3
:101F300008BF002D6BD13068810702D5E068012809
:101F40001ED17068216920F4F85040EA01207060C9
:101F50002078C10640F1B280B8F1000F40F09780C0
:101F60003068810503D5A069002800F08481206ACB
:101F7000716801F46041814266D200F079FA00286C
:101F800040F079817168206A21F4604101437160F9
:101F90007168E06921F07F4141EA006171605EE0B3
:101FA0006068012804D1306840F48030306013E06C
:101FB00008B9306809E00528306806D140F480206F
:101FC0003060316841F4803105E020F480303060C9
:101FD000316821F480213160606860B100F09EFAC0
:101FE00007463068810399D400F098FAC01B652831
:101FF000F7D3032042E100F091FA074630688103ED
:102000008CD500F08BFAC01B6528F7D3F1E7E068A8
:1020100068B10121396000F081FA05463068810716
:102020008FD400F07BFA401B0228F7D9E1E7386033
:1020300000F074FA05463168880789D500F06EFA19
:10204000401B0228F7D9D4E7716821F460410843A6
:1020500000F016F9206A00F00BFA002890D1216AEE
:10206000B268490BC2F303120120491C8840DFF813
:102070008814DFF87434895CC003C8401860DFF846
:102080007004006800F050FA010017D0F6E0A06973
:1020900048B30121396200F041FA054630688105F4
:1020A00005D400F03BFA401B0228F7D9A1E770687D
:1020B000216A20F46040084300F0E2F8207801072C
:1020C0002BD56069DFF83414D0B101220A6000F02A
:1020D00025FA0546706B81071FD400F01FFA401BDC
:1020E0000228F7D985E7386200F018FA054630680B
:1020F0008105E3D500F012FA401B0228F7D978E7F2
:10210000086000F00BFA0546706B810705D500F0FA
:1021100005FA401B0228F7D96BE72078410761D503
:10212000706A0025C10009D4706A40F08050706266
:102130000125706A00F0805000900098DFF8C0938D
:10214000D9F80000C10513D4D9F8000040F480701C
:10215000C9F8000000F0E2F98246D9F80000C10594
:1021600006D400F0DBF9A0EB0A006528F5D340E7C0
:10217000A068012808D008B9706B09E00528706BC9
:1021800006D140F480607063706B40F4807005E0AD
:1021900020F480707063706B20F48060706341F293
:1021A0008939A06860B100F0B9F98246706B810589
:1021B00013D400F0B3F9A0EB0A004845F6D318E7B2
:1021C00000F0ACF98246706B810506D500F0A6F9E7
:1021D000A0EB0A004845F6D30BE71DB1706A20F06A
:1021E00080507062606A002847D0B8F10C0F30D080
:1021F000022822D100F04DF805463068810105D54E
:1022000000F08CF9401B0228F7D9F2E6B068A16A09
:10221000E26A20F47D000843216B10430843B0605C
:10222000012000F037F804463068810125D400F021
:1022300075F9001B0228F7D9DBE600F02AF80446FE
:102240003068810119D500F069F9001B0228F7D91F
:10225000CFE601280FD0B068A26A00F48031914225
:1022600002BF00F47011E26A914202BF00F4400024
:10227000216B884201D0012000E00020BDE8F687F4
:1022800070607068E16920F07F4040EA0160706032
:1022900070470020386600F041B92DE9F84304008A
:1022A00089466FD0DFF85C62306800F00100484575
:1022B00002D200F08EF865D12078DFF8285281072D
:1022C00005D5AA68A06822F0F0020243AA6021782E
:1022D000C8074FD56068022802D129688A0308E040
:1022E000032802D129688A0103E00128296802D164
:1022F0008A0702D446E08A0544D5A968890840EADD
:102300008100A86041F2893800F008F9074660684A
:1023100002280BD1A86800F00C0008282AD000F091
:10232000FDF8C01B4045F5D3032050E003280AD137
:10233000A86800F00C000C281CD000F0EFF8C01BBF
:102340004045F5D3F0E701280AD1A86800F00C0059
:1023500004280FD000F0E2F8C01B4045F5D3E3E7B6
:10236000A86810F00C0F05D000F0D8F8C01B40454D
:10237000F6D3D9E7306800F00100814504D200F0BF
:1023800028F801D0012022E02078410705D5AA686D
:10239000E06822F4E0620243AA602178080706D5CB
:1023A000A968206921F4605141EAC001A96000F0E8
:1023B00021F8AA6850494C4BC2F30312895CC8400B
:1023C0001860BDE8F2434A48006800F0ADB8BDE8C7
:1023D000F283B9F1010F03D1306840F0040030609E
:1023E0003168490849EA41013160306800F0010074
:1023F0004845704730B545493C484A68444B02F06F
:102400000C04042C21D0082C02D00C2C02D013E098
:10241000184630BD3F4DC2F38344C2F381522C5D58
:102420004968521CCD0303D56343B3FBF2F030BDC2
:102430006043B0FBF2F030BD0868400B00F00700CD
:102440000121401C01FA00F0C00330BD26482E4A8D
:10245000006813683049C3F3022206E022482A4A82
:10246000006813682C49C3F3C222895CC8407047D6
:1024700078B5254B23491C68002214F0F00F22D1B7
:10248000DD691F4CEE0003D5246804F4C0540FE04E
:10249000DD6945F08055DD61DD6905F08055009509
:1024A000009D2468DD6925F0805504F4C054DD6189
:1024B000B4F5C05F08BFB0F5404F04D1086840F0E4
:1024C0000400012208600B685B0842EA43030B60CA
:1024D000086800F00100904201D0012072BD002088
:1024E00072BD000000380240AC0200200024F4005D
:1024F00088020020000047428446000880064742C8
:1025000000700040003C024008380240043802409D
:1025100000366E01784600087C47000801480068D4
:10252000704700BF8402002070B50E4E0446B068AC
:102530000025A0B14FF47A710B4AB1FBF0F110689D
:10254000B0FBF1F000F054F848B9102C07D200228B
:1025500021464FF0FF3000F023F8746000E00125C1
:10256000284670BD84020020AC0200200901020050
:1025700002D4294881547047284B02F00F021A44B4
:1025800002F8041C7047264B19684FF6FF02000240
:10259000114000F4E0600843224908431860704786
:1025A00070B51F4B1C68C4F302230124C3F1070557
:1025B000052D2EBF0F2504FA05F56D1E1E1D072ED5
:1025C00034BF0023DB1E2940994004FA03F3BDE821
:1025D00070405B1E1A401143C8E7010007D4012276
:1025E00000F01F01104B8A40400943F8202070473B
:1025F00010B5401EB0F1807F01D3012010BD0B4CFF
:1026000060600F214FF0FF30FFF7B0FF0021A160A5
:1026100007202060002010BD00E400E018ED00E07D
:102620000CED00E00000FA0500E100E010E000E041
:1026300038B5DFF88444DFF88454226B002020771B
:1026400002F13F01422000F08BFA6F22691C012049
:1026500000F099FA216B202008736F22691C012079
:1026600000F080FA206800F0D1FAA07900F040FB79
:10267000E07900F060FB207A00F079FB607900F0EF
:1026800028FB607A00F08CFB40F2FF3000F0E4FBA6
:10269000207E00F092FB012000F0FDFB2068DFF8B7
:1026A0002014884207D3002000F0BEFB002000F079
:1026B00093FB0E2006E0802000F0B6FB012000F026
:1026C0008BFB1420207100F0C0FABDE832400120DD
:1026D000FFE738B5DFF8E0532A6B53780446002053
:1026E00003F007039C4215D0032CEA7F08BF0120AA
:1026F00090421CBFE87700F087FA286B417801F020
:10270000F8010C434470286B4178BDE83440012047
:1027100000F020BA31BD10B5DFF89C43226B02F106
:102720000C010C2000F01CFA206B007B400910BD4E
:1027300010B5DFF884331A8C0A8000241C8403F15E
:102740003C01BDE81040FEF715BE10B5DFF8684348
:1027500061840A46014604F13C00FEF70BFE0523A6
:10276000237710BDD4490877704700002DE9F84F52
:10277000D14ED74D317F0124491E092971D8DFE898
:1027800011F00A004000740007010A0157016E01B0
:1027900097017401830100F0CBF9306B9D214174E6
:1027A0001120316B497C00F0D5F9F17A306B0129A9
:1027B00007D1317B80F8241000F0ACF900F0B0F9BB
:1027C00002E0FF2180F8241000F091F900F0B2F946
:1027D000B07A012808BF062005D0306BC17B417359
:1027E00000F08EF90520FFF774FF4FF4807106F1B9
:1027F0003C0000F091FB7069B063FFF78FFE7063DF
:1028000046E000F0ECF901280ED1FFF787FE706377
:10281000F07A012803D100F07DF900F081F9402120
:1028200000F05DF90320307700F0E0F901280ED1C7
:10283000FFF774FE7063F07A012803D100F06AF9A3
:1028400000F06EF900F04AF9FFF765FFB077B07A53
:10285000012840F02D81FFF761FE716BB26B401AC9
:10286000824280F0258104200CE1306B00F11201DE
:10287000122000F075F9306B817C88060AD5202182
:1028800000F02DF9B07A012808BF347700F01081EC
:102890000220F7E06946192000F062F99DF8000077
:1028A000010606D5C043401C801000F03F004042A6
:1028B00000E080087077306B00F11A011A2000F0F8
:1028C0004FF9376BB87EFFF741F896F91D50044673
:1028D0008A462846FEF77EFE8946326879498A4252
:1028E00034BFDFF8E4B1DFF8E4B1002D804608D54D
:1028F00000225B4620465146FFF728FA42464B46E7
:1029000007E07448744922465346FFF72DF8002229
:102910005B46FFF71BFAC6E90A01B07A012813D11A
:10292000F87B78730D20316B497B00F013F9707AD6
:102930000128306B02D190F8221003E000F0E5F896
:10294000306BC17C318418E007F11001102000F0D9
:1029500007F9717A306B012907D190F8221000F045
:10296000CCF8306B90F8221007E000F0CEF8306B16
:10297000C17C00F0C2F8306BC17C06F13C0000F075
:102980002AF9B07A012818BF0220307702248FE09C
:10299000347703248CE000F0CBF8F17A306B012916
:1029A0000AD1F5224274316B307B81F8240000F0AB
:1029B000B1F800F0B5F805E0F72141740020316B63
:1029C00081F8240000F093F800F08CF8316B708CE3
:1029D00081F82200306B90F82210222000F0BAF823
:1029E000316B00208873306B817B0E2000F0B2F8D1
:1029F000306B817B417300F083F8306B90F82210CC
:102A000006F13C0000F0E3F8316B412081F83D0015
:102A10004020316B81F83E000222306B00F13D0115
:102A2000402000F09FF80320FFF753FE062029E026
:102A300000F0D5F8012804D1082100F050F8072053
:102A4000307700F0D3F8012832D1F07A012803D191
:102A500000F060F800F064F800F040F828E000F0C2
:102A600067F800203077042422E000F061F8316B31
:102A7000FA20487400F036F800F05CF80720FFF701
:102A800028FE0A20307713E000F0BAF801280FD1B1
:102A9000042100F024F800F0B5F8012805D1012147
:102AA00000F01DF83477082402E000203077072476
:102AB0002046BDE8F28F0000380100207C03002092
:102AC000018F4233008F4233008064C000A063C096
:102AD000E84400081B9E5E29CB10F13F0221122022
:102AE00000F038B8306B417C112000F033B8306B07
:102AF00090F82410242000F02DB83184027C427319
:102B0000306B417B0D2000F025B800F1130113203C
:102B100000F026B8306B00F11C011C2000F020B83A
:102B2000306B017F01F03F0155F8210000F06EB8D5
:102B30000120CEE5316B002081F83D000222316B8F
:102B400081F83E00306B00F13D01402000F00AB8F2
:102B50007047704702B50122694600F003F801BDD5
:102B6000012210E0F8B500F028F844F0800000F0F1
:102B70002DFA002403E0285C00F028FA641CE0B27F
:102B8000B042F8D311E0F8B500F017F804F07F0078
:102B900000F01CFA002405E0002000F017FAE1B272
:102BA000641C6854E0B2B042F6D33846BDE8F84041
:102BB00001224FF4004100F009BB04460D461646C1
:102BC0000C4F00224FF40041384600F0FFBA0A468D
:102BD00001460020C6E70A4601460020D3E74FF42D
:102BE0000051054800F0ECBA012100E00221034841
:102BF00000F0E6BA00000240000802400004024073
:102C000001207047012070477047000038B5DFF899
:102C1000BC120860FEF79AFE0022DFF8B432FEF71D
:102C20005DFDFEF77FFEDFF8AC120D68040CAC71A1
:102C3000020A0B68DA7103220C682072BDE8384082
:102C40000868811D0620FFF78DBF70B500F0FCF805
:102C50002968493100F0E2F82868417A0B061DD551
:102C600090F8496006F08706872E0BD1042CD8BF58
:102C7000052402DD152CA8BF142441F07001417217
:102C8000611F18E0022CB8BF022402DB122CA8BF7F
:102C9000112441F070014172A11E0CE014F1010FEA
:102CA000B8BF4FF0FF3402DB0F2CA8BF0E2441F059
:102CB00070014172611C2868427A61F3030242721A
:102CC0002868417A0920FFF745FFDFF80002047108
:102CD00070BD38B500F043F82868417F01F00F015E
:102CE00041EA041100F035F8DFF8E001447131BD2C
:102CF00038B50D28044617DB0C24032000F0F1F84A
:102D0000DFF8D051286800F11E011E20FFF728FFD0
:102D10002868817F01F00F0141EA041100F03AF8C0
:102D2000DFF8A801847131BD0628B8BF062400DB96
:102D3000E3D10520E2E738B500F011F82868417FBB
:102D400001F0F10141EA440100F003F85F48C47169
:102D500031BD41772868417F1D20FFF7FBBE5D4DE7
:102D60002A68044602F11D011D20FFF7F9BE38B59F
:102D700000F0A7F802F11E011E20FFF7F1FE2868FF
:102D8000817F01F0FB0141EA840100F003F84F4824
:102D9000047231BD81772868817F1E20FFF7DABE7B
:102DA00038B5FFF7DCFF2868417F01F0FE012143C1
:102DB000FFF7CFFF4548447231BD10B50446454882
:102DC000016881F82240026892F822102220FFF761
:102DD000C1FE3E490C7610BD38B500F022F805461C
:102DE00000F01AF8216809310920FFF7B9FE2068C0
:102DF000417A0A0605D5012D06D1872180F84910B0
:102E000002E0842280F84920206890F84910BDE84B
:102E100034404D20FFF79EBE02F149014D20FFF7DF
:102E20009FBE2C4C2268704738B500F00DF828681A
:102E3000417A01F07F010C4344722868417ABDE871
:102E400034400920FFF786BE224D2A68044602F16D
:102E500009010920FFF784BE38B500F012F800F030
:102E600015F82868827F210A61F301028277022225
:102E70002868C4771E202968BDE838401E31FFF756
:102E800071BE144D2B6804460222704703F11E01E7
:102E90001E20FFF778BE38B500F013F800F01CF8DC
:102EA000286890F8261001F0F70141EAC40180F883
:102EB0002610286890F82610BDE834402620FFF739
:102EC00049BE044D2A6804467047000038010020BE
:102ED00080844E406801002002F126012620FFF781
:102EE0003FBE38B5FFF7EDFF00F010F8286890F806
:102EF000301001F0F8010C4380F83040286890F859
:102F00003010BDE834403120FFF724BE02F130011B
:102F10003120FFF725BE0000002200F06BB9000051
:102F200080B53648364901604FF482721021426004
:102F3000C16100234FF400720A218360C360036102
:102F400043618261036243628362C16200F06CF993
:102F500018B1BDE8014000F0B9BB01BD10B586B0A5
:102F600004461422002101A800F026FC2168244810
:102F7000814229D12348416841F480514160416830
:102F800001F4805100910099026842F00102026050
:102F9000036803F0010300930099026842F0020203
:102FA00002603821006800F00200009002220098C0
:102FB00015480191029200210391032205210591F8
:102FC000049201A900F02CF806B010BD01B582B042
:102FD00000204FF6FF718DF804000091012301AA33
:102FE00002A9064800F05CF928B100BF07A000F074
:102FF000EDFB01200EBD9DF804000EBDEC0300208A
:10300000003001401C38024000040240535049B6D1
:10301000C1C8A1BDD3CAD5CAA7B0DC0D0A00000043
:103020002DE9F84F4FF0000E6A4A6B4BDFF8AC8188
:103030004FF00F0982460F4633E0694DAA4514BF91
:10304000052504258D40254343F82C50C1431468C1
:1030500001EA040C7C68E50348BF40EA0C0CC2F8A6
:1030600000C0546801EA040C7C68A50348BF40EA2C
:103070000C0CC2F804C0946801EA040C7C68E502F8
:1030800048BF40EA0C0CC2F808C0D46801EA040C3E
:1030900079688C0248BF40EA0C0CC2F80CC00EF1F3
:1030A000010E396831FA0EF000F08880012000FA34
:1030B0000EFC1CEA0100F2D07C68022C18BF122C16
:1030C0004FEA8E0110D14FEADE040AEB840401F0CE
:1030D0001C05266A09FA05FB26EA0B06D7F810B08C
:1030E0000BFA05F5354325624FEA4E040325DAF85D
:1030F000006097F804B0A540ED430BF0030B2E40A1
:103100000BFA04FB4BEA0606CAF800607E68012E43
:1031100018BF022E03D0112E18BF122E17D1DAF8C5
:103120000860D7F80CB02E400BFA04FB4BEA0606F9
:10313000CAF80860DAF8046026EA0C0C7E68C6F368
:10314000001606FA0EF646EA0C06CAF80460DAF82B
:103150000C603540BE6806FA04F42C43CAF80C40F3
:103160007C68E4009BD5D8F8004044F00104C8F81E
:1031700000404FEA9E0CD8F8005005F0010500957C
:1031800001F00C01009C53F82C5009FA01F425EAD7
:103190000404144DAA4508BF00250ED0124DAA45BF
:1031A00008BF012509D0114DAA4508BF022504D04A
:1031B0000F4DAA457FF441AF032543E7BDE8F18FEA
:1031C0000069084018BF0120C0B2704702B9090465
:1031D000816170470004014008000140203802402E
:1031E00000100240000002400004024000080240BB
:1031F000000C024000B500BF1300964694461039FB
:1032000028BFA0E80C50FAD85FEA417C28BF0CC068
:1032100048BF40F8042BC90728BF20F8022B48BF3D
:1032200000F8012B00BD000038B5040001D10120D9
:1032300032BD0020A06204F15005687820B9002159
:1032400029702046FFF78AFE0220687000F022F9FC
:103250006268A168E06823680A43216902436069E3
:103260000A43A169024301F40071E0690A43216A3B
:103270000243A06A0A4302431A60A1692068090C4C
:1032800001F00401416001200021696068700020A4
:1032900032BD00962968CA6800928968009170471B
:1032A0002DE9FC4700F0D5F84FF0010808BF0220D7
:1032B00000F0C6809A4687F80080FFF72FF97B78E8
:1032C000012B09D06968B1F5827F02BFA968002986
:1032D000042B01D00226AEE0002C1CBFB9F1000F78
:1032E000BAF1000F01D10126A5E07B78042B1CBFA9
:1032F000052179707E60C5F83890A5F83EA0A5F844
:103300003CA02C63A5F836A0A5F834A02E646E640A
:1033100029680C68630603D40C6844F040040C6010
:10332000E9680A9CB1F5006F696838D1002918BFB7
:10333000BAF1010F00F0A2F88146E88E002804BF20
:10334000E88F002868D02968886882070BD5E88E46
:10335000002818BFB8F1000F05D0286B0288CA609A
:10336000B04600F06FF829688868C2070CD5E88F6E
:1033700050B1C868A96B08804FF00108A86B821C87
:10338000AA63E88F411EE987FFF7C8F8A0EB0900A0
:10339000A042D2D314F1010FCFD003264BE0002975
:1033A00018BFBAF1010F00F05DF88146E88E0028E1
:1033B00004BFE88F00282FD02968886882070DD5C0
:1033C000E88E002818BFB8F1000F07D0286B0278EC
:1033D0000A73B046286B411C00F036F829688868EB
:1033E000C2070CD5E88F50B1C868A96B08704FF0C0
:1033F0000108A86B421CAA63E88F411EE987FFF70A
:103400008DF8A0EB0900A04203D314F1010FCDD039
:10341000C3E7002CCAD1C0E74A462146284600F03F
:103420008AF818B120200126786004E0A86810B955
:10343000FFF72FFF00980121797000203870304687
:10344000BDE8F687286B811C2963E88E411EE9865A
:103450007047054605F150070026387801280C46CC
:103460009146704709D1296B2B680A781A73296B2A
:103470004A1C2A63E98E4A1EEA86704709D1296BE5
:103480002B680A88DA60296B8A1C2A63E98E4A1E37
:10349000EA8670472068016821F0400101607047AA
:1034A0002DE9F041069F05460E4690461C462868C9
:1034B00081683140B1420CBF01200020404531D02D
:1034C00014F1010FF3D0FFF729F8C01BA04201D27D
:1034D000002CECD12868416821F0E0014160686867
:1034E000B0F5827F08D1A868B0F5004F18BFB0F5DD
:1034F000806F01D100F019F8A86AB0F5005F09D11A
:103500002868016821F4005101602868026842F4CB
:103510000052026005F1500001214170002202704A
:10352000032000E00020BDE8F0812868016821F058
:103530004001016070471CB500F012F802D1009202
:10354000802105E094F85100052807D1009201215F
:1035500000222046FFF7A4FF00B107E0002016BDBF
:1035600004460B466068B0F5827F704700F002F8B1
:10357000032016BD606D40F02000606570470000BC
:103580001CB500208DF8040000F034F900F06FF84D
:1035900000F040F9FFF7C4FC00F0B6F900F0BCF908
:1035A00000224FF48041604868A4FFF70FFE01A994
:1035B0004220FFF7D5FA9DF8040012280CBF0FF245
:1035C0007C100FF2A01000F001F99DF804102046C5
:1035D00000F0FCF800F014FA544CA060006880473A
:1035E00004210091022301225FF0000162A000F09B
:1035F000EDF8A0688168884762A000F0E7F800F065
:1036000005F8C82000F018FAF9E7000010B5474C9B
:10361000A06841698847022802D004281DD010BD47
:10362000A268D36804F10C012046984700F065F8C1
:10363000A188227859A0491CA18089B200F0C6F85F
:103640002078A268401C2070012113692046984709
:10365000BDE81040C82000F0EFB900F038F86088ED
:10366000401C6080A0688168BDE81040084780B5B4
:1036700092B0342105A8FFF74FFC14216846FFF7EC
:103680004BFC2B480168102221F4C05141F4006129
:1036900001600992022000220F92109205900121F0
:1036A0000E904FF480020891119205A8FEF718FCC5
:1036B000032101910F2000908022002102920391AA
:1036C00004916846FEF7E9FD13B000BD704710B5E0
:1036D000154C0022012100F00DF80122FFE700F057
:1036E00008F8BDE8104001224FF480511148FFF75F
:1036F0006DBD02212046FFF769BD10B500F007F847
:103700000122FFF7F6FFBDE810400022ECE7064C6F
:10371000012201212046FFF759BD07490A68130617
:10372000FCD5486070470000000002407402002091
:103730000070004000040240003801404C6F5261AC
:103740002072656164204F4B0D0A00004C6F52617E
:103750002052656756657273696F6E203D2025643F
:103760000D0A00004C6F5261207265616420455261
:10377000524F520D0A00000025642564256425641B
:103780000D0A0000534C41564520B5C8B4FDBDD3C9
:10379000CADCCAFDBEDD0D0A00000000B5DA2564F2
:1037A000B4CEBDD3CAD5B5BDB5C4CAFDBEDDCEAAA3
:1037B000A3BA25640D0A000010B5044610460A4657
:1037C0000146204600F04CF9204610BD0EB4C0B5AD
:1037D000024603A800210190009101AB0121044899
:1037E00078440C30FCF786FC06BC5DF810FB00BF8B
:1037F0004F0F0000032010B5FEF7C5FE0020FEF7B6
:1038000093FE0024002814BF012400F05DF9204637
:1038100010BD000038B586B0142200216846FFF7BD
:10382000CBFF3148314C0168314D41F0040101605A
:10383000026802F0040205920599026842F0010252
:103840000260036803F0010305930599026842F0E2
:10385000020202600122006800F0020005904CF2B2
:10386000030105982046FFF7B1FC002202212846FB
:10387000FFF7ACFC01224FF490512846FFF7A6FC5D
:1038800000224FF480712046FFF7A0FC4FF4005057
:10389000002100900191029169461648FFF7C0FB94
:1038A00044F2031100F028F82046FFF7B9FB4FF46B
:1038B000004100910322039269462046FFF7B0FBC6
:1038C00040F2C710002100900191029128466946FC
:1038D000FFF7A6FB4FF4905100F00EF82846FFF7D3
:1038E0009FFB07B030BD00001C38024000000240C2
:1038F00000040240000802400091012200210291D0
:10390000039101926946704780B53748374900F006
:103910000BF800B116E001BD80B53548354900F01F
:1039200003F800B10EE001BD01604FF4E132002365
:103930000C2142608360C360036141618361C361A4
:1039400000F0E4B8BDE80140FFF7C0BE10B586B096
:103950000446142200216846FFF72EFF2268234BFD
:10396000254826499A420DD14A6842F480424A606D
:103970004A6802F4804200F01EF84FF4C06200F082
:1039800021F816E01B4B9A4213D18A6842F40032A8
:103990008A608A6802F4003200F00DF80C2200F010
:1039A00011F8002200212620FEF7FAFD2620FEF75E
:1039B00014FE06B010BD0592059A0B6843F0010392
:1039C0000B607047096801F0010105910223059918
:1039D000009201930122029203230722039304928F
:1039E0006946FFF71DBB0000940400200038014029
:1039F000D404002000440040000002401C38024073
:103A000006480749074A084B01604260836007493E
:103A1000074AC160026107494161704714050020EF
:103A2000C5430008ED43000899440008AD44000870
:103A3000BD440008CD44000838B50446FEF76EFDCD
:103A400014F1010F054602D0044988680419FEF7F5
:103A500065FD401BA042FAD331BD00BF84020020A7
:103A600062F30F2262F31F42401810F0030308D0E4
:103A7000C91A1FD3DB0748BF00F8012D28BF20F863
:103A8000022D130030B414461546103928BF20E922
:103A90003C00FAD8490728BF20E90C0048BF40F88D
:103AA000042D890028BF20F8022D48BF00F8012D01
:103AB00030BC7047C91818BF00F8012DCB0728BFCC
:103AC00000F8012D704700000F4881B0416841F0B7
:103AD00000414160416801F0004100910099026895
:103AE00042F001020260036803F0010300930099B1
:103AF000426842F080524260406800F0805000907E
:103B0000009801B0704700BF2038024038B504006B
:103B100001D1012032BD00F021F808B900F022F8EF
:103B200000F012F800F023F8FFE7416100F001F81F
:103B300032BD2068C16841F40051C1600020686056
:103B400020216970A9707047242068702068C168BE
:103B500021F40051C160204600F01DB904F1380580
:103B600068787047002129702046FFF7EFBE206873
:103B7000016921F4904101612068416921F02A0125
:103B80007047416921F040014161606B704738B571
:103B9000044625682968EA686B6911F00F0007D1AF
:103BA00088065DD593065BD52046BDE83240A9E086
:103BB000D80702D412F4907F52D0C80705D5D50596
:103BC00003D5E06B40F00100E063480705D5DD0751
:103BD00003D5E06B40F00200E063880705D5DD0700
:103BE00003D5E06B40F00400E063080705D5DB0770
:103BF00003D5E06B40F00800E063E06B00286CD078
:103C0000880604D5910644BF204600F07BF8206862
:103C10004069E16B0A0701D440061BD5204600F03D
:103C20005DF8206841694A060FD5FFF7AAFF60B129
:103C30000FF2C5014163606B00F010F900284CD011
:103C4000606B416BBDE8344008472046BDE8324018
:103C500000F031B9204600F02EF90020E06331BDBC
:103C600008062AD5130628D594F83900212834D11E
:103C7000A068B0F5805F206A0BD10188C1F308010C
:103C8000696020690028206A0CBF811C411C2162E8
:103C900003E0411C216200786860E08C401EE084F3
:103CA00080B2D0B92068C16821F08001C16020686D
:103CB000C16841F04001C16031BD48060DD55106D3
:103CC0000BD5E86820F04000E860202184F8391026
:103CD0002046BDE8324000F0EFB831BD0168CA6847
:103CE00022F49072CA6001684A69520852004A611F
:103CF000202180F83A107047406A0021C185C184B4
:103D000000F0D9B880B590F83A10222941D18168E5
:103D1000B1F5805F12D101690368826A0029596890
:103D200005D1C1F308011180826A911C04E001F001
:103D3000FF011180826A511C81620FE00169002934
:103D4000816A04D14A1C826203685A6805E04A1CF1
:103D5000826203685A6802F07F020A70C18D491EB0
:103D6000C18589B299B90168CA6822F02002CA6087
:103D70000168CA6822F48072CA6001684A69520800
:103D800052004A61202180F83A1000F096F8002095
:103D900002BD022002BD70B5044664252268116987
:103DA000E06821F44051014311611926D368254888
:103DB000A168034020690B4361690343E0690B4339
:103DC0000343D3605169A06921F4407101435161FB
:103DD0001D48E169B1F5004F18D1824202D1FEF7CA
:103DE0003DFB01E0FEF732FB46436068400000F017
:103DF0002DF8ED0032356420B5FBF0F0420002F4FE
:103E0000F87202EB011200F0070016E0824202D1C4
:103E1000FEF724FB01E0FEF719FB464360688000D3
:103E200000F014F82D0132356420B5FBF0F000F0FD
:103E3000F00202EB011200F00F0021688018886088
:103E400070BD0000F369FFFF00380140B6FBF0F0E1
:103E50006421B0FBF1F105FB1105704738B590F80E
:103E600021200024022A00F1340103D004204860FC
:103E7000012411E000F018F815686D086D00156058
:103E800001220B7B8D6803F01C039A406A6000F0EE
:103E900005F8096801B18847204632BD012280F843
:103EA000212080F8204070470268136823F00E0339
:103EB00013600268704770477047704738B5DFF885
:103EC00064542A6B53780446002003F007039C4295
:103ED00015D0032CAA7F08BF012090421CBFA877F1
:103EE000FEF792FE286B417801F0F8010C43447014
:103EF000286B4178BDE834400120FEF72BBE31BD70
:103F000010B5DFF82044236B022203F11B011B20B4
:103F1000FEF739FE206BC17E007F40EA0120FDF7ED
:103F200059FBFDF739FBFDF755FB0022DFF8F833AD
:103F3000FDF71AFDBDE81040FDF72EBB10B5DFF808
:103F4000E443226B02F10C010C20FEF709FE206B0A
:103F5000007B400910BD10B5DFF8C843226B02F1A9
:103F600011011120FEF7FCFD206B407CFDF7EEFCFB
:103F7000BDE810400022DFF8B433FDF7F5BC38B5DA
:103F8000DFF8A0331C8C0C8000251D840A8803F107
:103F90003801BDE83840FDF7EDB910B5DFF88443CE
:103FA00061840A46014604F13800FDF7E3F907236E
:103FB000237710BDDFF86C03016B11F8270F4A7AE5
:103FC000C97A00F00700401C130648BF401C12F0DD
:103FD000060F18BF401CD2064CBF02220022081850
:103FE000101880B27047CF49087770472DE9F0422A
:103FF000CC4ECF4D307F0124401E0A285FD8DFE829
:1040000010F00B005F009F000B01100115011A0159
:104010003501570187018B01316B01F130000278C6
:10402000D10647BF4C2202740C210174316BE12090
:1040300081F841000222336B03F140014020FEF77A
:1040400091FD0520FFF73AFF4FF4807106F138002B
:10405000FEF762FFFFF7AEFFFDF778FC0022B54BDD
:10406000FDF782FC074670688946FDF76FFC024643
:104070000B4638464946FDF731FB0022AE4BFDF7B3
:1040800073FC00F075F90022AC4BFDF75FFEFDF705
:1040900083FA80B2A86000EB5000A860E860FEF7E9
:1040A0003DFA28616861A020316B00F04EF90020D4
:1040B0006870A870E87028710221308431772EE191
:1040C000FEF7A0FD012804BF6878002803D16C70BA
:1040D000FEF724FA6861FEF789FD012804BF6878BD
:1040E000012812D1A87880B9AC70FFF734FFC6E977
:1040F0000A01FFF705FF7063FFF720FF7077FEF7F7
:104100000DFA2861686103203077A878002804BF81
:10411000687801280ED1FEF701FA6969EA68401A49
:10412000824207D2316B34770D20497B41F0200168
:10413000FEF710FDAA786978E8780A43024361E047
:10414000308C40F20111884202DB06223277E6E031
:10415000FEF74AFD01282ED1308C002804BF2879B3
:10416000002809D1306B10F8301F0A0602D500F084
:10417000E7F801E08078308406F13800316B378C45
:1041800091F835102A7901F03F0CBB1A9C45104478
:104190000BDA01F03F01FEF71EFD316B91F835207F
:1041A000287902F03F02101804E0BA1AD1B2FEF7E3
:1041B00012FD308C2871FEF712FD012820D1FEF788
:1041C000ADF92861308C002804BF2879002809D176
:1041D000306B10F8301F0A0602D500F0B1F801E08C
:1041E000807830842879318C091A06F13802C9B2F6
:1041F0001044FEF7F0FC308C2871EC70042085E050
:10420000E87800280CD1FEF789F92969AA68401AD4
:10421000824205D2052079E00021297134770224F9
:104220007DE000F09AF83477032478E000F095F808
:104230003477062473E0316B01F1300220201474CE
:104240000222316B81F84100306B00F140014020C7
:10425000FEF788FC316B982000F077F80320FFF719
:104260002DFE082030770021697158E0FEF7C8FC68
:10427000012854D1306B90F83010080604D5012184
:1042800006F12200FEF7A3FC708C08B1412800DB88
:104290002020287006F138002978FEF798FC69790B
:1042A000287841186971FEF739F9A86109202DE0D5
:1042B000FEF79AFCA8B9778C29786A79BB1A06F1BF
:1042C00038009942104406DAFEF781FC69792878B3
:1042D0004118697105E0BA1AD1B2FEF778FC708C0A
:1042E0006871FEF77CFC012807D1FEF717F9A86179
:1042F0000A2030770120FFF7E1FDFEF70FF9A969E9
:10430000401A40F2E932904209D30B20307706E0A0
:1043100000213177042402E0002030770524204674
:10432000BDE8F0820000002080844E400000E0BF25
:10433000900200200000204000408F400000F03F2D
:10434000012106F12000FEF746BC81F83500306BF4
:1043500090F835103520FEF7FDBB00202871308421
:10436000306B417B41F020010D20FEF7F3BB0000D4
:1043700040F2FF7C0CEA115240F2FE33D21A17DDF4
:10438000352A1DDAB2F1150308DA6FEA4C53D3402F
:1043900031EA5301C9189943002070476FF00002B9
:1043A000DA4030EA5200801841F100019043704732
:1043B00001F0004104BF41F07C5141F47001002044
:1043C0007047000010B5454C4549464B201D08601C
:1043D000221D1A60FEF7BCFB00F008F801202070D7
:1043E00000F01BF8BDE81040FEF722B910B501201F
:1043F000FEF7AFFBFEF792F80446FEF78FF8001BBE
:10440000FBD00020FEF7A5FBFEF788F80446FEF778
:1044100085F8001B0628FAD310BD38B52F4C6178FB
:10442000814232D00128607020702E4D1AD10020B8
:10443000FEF74FF92868417841F0800100F026F836
:104440000120FEF746F92968002081F83D0000228E
:10445000286880F83E20022229683D314020FEF77E
:1044600081FB0BE00020FEF734F92868417801F069
:104470007F0100F00BF80120FEF72BF9611DBDE86C
:1044800038406F220120FEF77EBB31BD41702868A5
:1044900041780120FEF75EBB10490878002804BF70
:1044A0000120FFF7A0BD0120FEF75CB90B4B1A7885
:1044B000002A08BFFFF763BDFEF73AB9074B1A7829
:1044C000002A08BFFFF769BDFEF73FB90349087826
:1044D000002808BFFFF78ABDFEF748B9780300201F
:1044E000300000206801002020AEA036E07D0B37B0
:1044F000A017083660F0AF3660F0AF36403D2E367C
:10450000C0AFD235000D993620A5633680A3313770
:104510004061223760DE353640466B36A032BF360A
:10452000A032BF36A00ECB35E0625436A0443937F6
:10453000A00ECB35809AF436001F1337E050DA35E1
:1045400040466B36809AF43680A33137807F3D3603
:104550000016D636A03BFC36C0C14C36809AF436E5
:1045600060DE353680A33137809AF4368091B736D5
:1045700060022A3700FB1E3660F0AF36A0443937A0
:10458000209C2636000D993660D5F835000D9936F9
:10459000C0AFD2354034F135C0CA893640466B369B
:1045A000C0B80F36807F3D36A044393760022A37C5
:1045B000C0C14C36F0B402461068956813185068B4
:1045C00003EB5004C0071CD54D441AE013F8017BDF
:1045D00005F8017B491EF9D198B113F8011BC6F308
:1045E0008106032E08BF13F8016B01EB0621494237
:1045F000801C294405D011F8016B05F8016B401EA1
:10460000F9D1A3420ED013F8016B16F0030104BFD9
:1046100013F8011BC91C30090F28DBD113F8010B5B
:104620000F30D7E7F0BC02F10C00704710B50E4A0E
:104630000E49106840F48070106093680C480B407D
:104640009360146804401460116821F480211160A3
:104650000021906820F47D009060D1604FF00060F0
:10466000044A106010BD0000003802400CC0FF88F2
:10467000FEFFFEEE08ED00E0030406080C10182013
:1046800030000000000000000000000001020304F0
:104690000607080910B5074979441831064C7C44CF
:1046A000163404E00A68081D114488470146A142F7
:1046B000F8D110BD0800000024000000FFCAFFFF71
:1046C000B80100007803002000000000E9FEFFFFB1
:1046D0006001000028010000000000207047FEE794
:1046E000FEE7FEE7FEE770477047704700F006B848
:1046F0000148FFF74CBA0000D404002002490A68C0
:10470000886882180A6070478402002000F00DF863
:10471000002801D0FFF7BEFFAFF300800020AFF309
:104720000080FEF72DFF00F002F80120704700F036
:1047300001B8000007463846FDF7C8FBFBE738B56F
:1047400004460D46284600F005F8A84218BF00248C
:10475000204632BD0149FEF7E0BF00BF3003002014
:1047600001488047014800472D460008714700086E
:10477000AFF30080AFF30080FFF7C8FF0000000038
:1047800001020304FFF7FEBFFFF7FEBFFFF7FEBF06
:10479000FFF7FEBFFFF7FEBFFFF7FEBFFFF7FEBF4D
:1047A000FFF7FEBFFFF7FEBFFFF7FEBFFFF7FEBF3D
:1047B000FFF7FEBFFFF7FEBFFFF7FEBFFFF7FEBF2D
:1047C000FFF7FEBFFFF7FEBFFFF7FEBFFFF7FEBF1D
:1047D000FFF7FEBFFFF7FEBFFFF7FEBFFFF7FEBF0D
:1047E000FFF7FEBFFFF7FEBFFFF7FEBFFFF7FEBFFD
:1047F000FFF7FEBFFFF7FEBFFFF7FEBFFFF7FEBFED
:10480000FFF7FEBFFFF7FEBFFFF7FEBFFFF7FEBFDC
:10481000FFF7FEBFFFF7FEBFFFF7FEBFFFF7FEBFCC
:10482000FFF7FEBFFFF7FEBFFFF7FEBFFFF7FEBFBC
:10483000101A8025DB338025000050C300001400CF
:104840000000A0860100F04902000101FF0005F20E
:10485000FF000161013405D858F619140707221228
:10486000040443E707044532F5FF39F109016529DE
:104870004310000CF60A2039F0060768FF1F005AA3
:104880001400080452FF01E31A1314100100002A57
:104890000C2160F30CB00263B101200299120008F0
:1048A0002C4387123C21011007020401014404003B
:1048B000209404524404211B6108F0041174030085
:0448C000206003640D
:040000050800477137
:00000001FF
